{
	"data": {
		"bytecode": {
			"linkReferences": {},
			"object": "6080604052348015600e575f5ffd5b50610ae58061001c5f395ff3fe608060405260043610610054575f3560e01c806302c7e7af14610058578063189a55e71461008257806372e463881461008c57806388439bbc146100b75780638da5cb5b146100f3578063c5eebe4c1461011d575b5f5ffd5b348015610063575f5ffd5b5061006c610145565b60405161007991906103d1565b60405180910390f35b61008a610158565b005b348015610097575f5ffd5b506100a061024b565b6040516100ae929190610475565b60405180910390f35b3480156100c2575f5ffd5b506100dd60048036038101906100d891906104e7565b6102f0565b6040516100ea9190610521565b60405180910390f35b3480156100fe575f5ffd5b5061010761030c565b6040516101149190610579565b60405180910390f35b348015610128575f5ffd5b50610143600480360381019061013e91906106e8565b610330565b005b600160159054906101000a900460ff1681565b61017260015f9054906101000a900460ff1660ff166102f0565b3410610249575f61019360015f9054906101000a900460ff1660ff166102f0565b3461019e919061076f565b90505f8111156101ed573373ffffffffffffffffffffffffffffffffffffffff166108fc8290811502906040515f60405180830381858888f193505050501580156101eb573d5f5f3e3d5ffd5b505b336001806101000a81548173ffffffffffffffffffffffffffffffffffffffff021916908373ffffffffffffffffffffffffffffffffffffffff16021790555060018060156101000a81548160ff021916908315150217905550505b565b60605f5f60015f9054906101000a900460ff1681805461026a906107cf565b80601f0160208091040260200160405190810160405280929190818152602001828054610296906107cf565b80156102e15780601f106102b8576101008083540402835291602001916102e1565b820191905f5260205f20905b8154815290600101906020018083116102c457829003601f168201915b50505050509150915091509091565b5f670de0b6b3a76400008261030591906107ff565b9050919050565b60018054906101000a900473ffffffffffffffffffffffffffffffffffffffff1681565b815f908161033e91906109e0565b508060015f6101000a81548160ff021916908360ff160217905550336001806101000a81548173ffffffffffffffffffffffffffffffffffffffff021916908373ffffffffffffffffffffffffffffffffffffffff1602179055505f600160156101000a81548160ff0219169083151502179055505050565b5f8115159050919050565b6103cb816103b7565b82525050565b5f6020820190506103e45f8301846103c2565b92915050565b5f81519050919050565b5f82825260208201905092915050565b8281835e5f83830152505050565b5f601f19601f8301169050919050565b5f61042c826103ea565b61043681856103f4565b9350610446818560208601610404565b61044f81610412565b840191505092915050565b5f60ff82169050919050565b61046f8161045a565b82525050565b5f6040820190508181035f83015261048d8185610422565b905061049c6020830184610466565b9392505050565b5f604051905090565b5f5ffd5b5f5ffd5b5f819050919050565b6104c6816104b4565b81146104d0575f5ffd5b50565b5f813590506104e1816104bd565b92915050565b5f602082840312156104fc576104fb6104ac565b5b5f610509848285016104d3565b91505092915050565b61051b816104b4565b82525050565b5f6020820190506105345f830184610512565b92915050565b5f73ffffffffffffffffffffffffffffffffffffffff82169050919050565b5f6105638261053a565b9050919050565b61057381610559565b82525050565b5f60208201905061058c5f83018461056a565b92915050565b5f5ffd5b5f5ffd5b7f4e487b71000000000000000000000000000000000000000000000000000000005f52604160045260245ffd5b6105d082610412565b810181811067ffffffffffffffff821117156105ef576105ee61059a565b5b80604052505050565b5f6106016104a3565b905061060d82826105c7565b919050565b5f67ffffffffffffffff82111561062c5761062b61059a565b5b61063582610412565b9050602081019050919050565b828183375f83830152505050565b5f61066261065d84610612565b6105f8565b90508281526020810184848401111561067e5761067d610596565b5b610689848285610642565b509392505050565b5f82601f8301126106a5576106a4610592565b5b81356106b5848260208601610650565b91505092915050565b6106c78161045a565b81146106d1575f5ffd5b50565b5f813590506106e2816106be565b92915050565b5f5f604083850312156106fe576106fd6104ac565b5b5f83013567ffffffffffffffff81111561071b5761071a6104b0565b5b61072785828601610691565b9250506020610738858286016106d4565b9150509250929050565b7f4e487b71000000000000000000000000000000000000000000000000000000005f52601160045260245ffd5b5f610779826104b4565b9150610784836104b4565b925082820390508181111561079c5761079b610742565b5b92915050565b7f4e487b71000000000000000000000000000000000000000000000000000000005f52602260045260245ffd5b5f60028204905060018216806107e657607f821691505b6020821081036107f9576107f86107a2565b5b50919050565b5f610809826104b4565b9150610814836104b4565b9250828202610822816104b4565b9150828204841483151761083957610838610742565b5b5092915050565b5f819050815f5260205f209050919050565b5f6020601f8301049050919050565b5f82821b905092915050565b5f6008830261089c7fffffffffffffffffffffffffffffffffffffffffffffffffffffffffffffffff82610861565b6108a68683610861565b95508019841693508086168417925050509392505050565b5f819050919050565b5f6108e16108dc6108d7846104b4565b6108be565b6104b4565b9050919050565b5f819050919050565b6108fa836108c7565b61090e610906826108e8565b84845461086d565b825550505050565b5f5f905090565b610925610916565b6109308184846108f1565b505050565b5b81811015610953576109485f8261091d565b600181019050610936565b5050565b601f8211156109985761096981610840565b61097284610852565b81016020851015610981578190505b61099561098d85610852565b830182610935565b50505b505050565b5f82821c905092915050565b5f6109b85f198460080261099d565b1980831691505092915050565b5f6109d083836109a9565b9150826002028217905092915050565b6109e9826103ea565b67ffffffffffffffff811115610a0257610a0161059a565b5b610a0c82546107cf565b610a17828285610957565b5f60209050601f831160018114610a48575f8415610a36578287015190505b610a4085826109c5565b865550610aa7565b601f198416610a5686610840565b5f5b82811015610a7d57848901518255600182019150602085019450602081019050610a58565b86831015610a9a5784890151610a96601f8916826109a9565b8355505b6001600288020188555050505b50505050505056fea26469706673582212206e722ff647503f26ce08c7990a3700d12f9adeae592855b6b7e93ecddf9ce3f264736f6c634300081c0033",
			"opcodes": "PUSH1 0x80 PUSH1 0x40 MSTORE CALLVALUE DUP1 ISZERO PUSH1 0xE JUMPI PUSH0 PUSH0 REVERT JUMPDEST POP PUSH2 0xAE5 DUP1 PUSH2 0x1C PUSH0 CODECOPY PUSH0 RETURN INVALID PUSH1 0x80 PUSH1 0x40 MSTORE PUSH1 0x4 CALLDATASIZE LT PUSH2 0x54 JUMPI PUSH0 CALLDATALOAD PUSH1 0xE0 SHR DUP1 PUSH4 0x2C7E7AF EQ PUSH2 0x58 JUMPI DUP1 PUSH4 0x189A55E7 EQ PUSH2 0x82 JUMPI DUP1 PUSH4 0x72E46388 EQ PUSH2 0x8C JUMPI DUP1 PUSH4 0x88439BBC EQ PUSH2 0xB7 JUMPI DUP1 PUSH4 0x8DA5CB5B EQ PUSH2 0xF3 JUMPI DUP1 PUSH4 0xC5EEBE4C EQ PUSH2 0x11D JUMPI JUMPDEST PUSH0 PUSH0 REVERT JUMPDEST CALLVALUE DUP1 ISZERO PUSH2 0x63 JUMPI PUSH0 PUSH0 REVERT JUMPDEST POP PUSH2 0x6C PUSH2 0x145 JUMP JUMPDEST PUSH1 0x40 MLOAD PUSH2 0x79 SWAP2 SWAP1 PUSH2 0x3D1 JUMP JUMPDEST PUSH1 0x40 MLOAD DUP1 SWAP2 SUB SWAP1 RETURN JUMPDEST PUSH2 0x8A PUSH2 0x158 JUMP JUMPDEST STOP JUMPDEST CALLVALUE DUP1 ISZERO PUSH2 0x97 JUMPI PUSH0 PUSH0 REVERT JUMPDEST POP PUSH2 0xA0 PUSH2 0x24B JUMP JUMPDEST PUSH1 0x40 MLOAD PUSH2 0xAE SWAP3 SWAP2 SWAP1 PUSH2 0x475 JUMP JUMPDEST PUSH1 0x40 MLOAD DUP1 SWAP2 SUB SWAP1 RETURN JUMPDEST CALLVALUE DUP1 ISZERO PUSH2 0xC2 JUMPI PUSH0 PUSH0 REVERT JUMPDEST POP PUSH2 0xDD PUSH1 0x4 DUP1 CALLDATASIZE SUB DUP2 ADD SWAP1 PUSH2 0xD8 SWAP2 SWAP1 PUSH2 0x4E7 JUMP JUMPDEST PUSH2 0x2F0 JUMP JUMPDEST PUSH1 0x40 MLOAD PUSH2 0xEA SWAP2 SWAP1 PUSH2 0x521 JUMP JUMPDEST PUSH1 0x40 MLOAD DUP1 SWAP2 SUB SWAP1 RETURN JUMPDEST CALLVALUE DUP1 ISZERO PUSH2 0xFE JUMPI PUSH0 PUSH0 REVERT JUMPDEST POP PUSH2 0x107 PUSH2 0x30C JUMP JUMPDEST PUSH1 0x40 MLOAD PUSH2 0x114 SWAP2 SWAP1 PUSH2 0x579 JUMP JUMPDEST PUSH1 0x40 MLOAD DUP1 SWAP2 SUB SWAP1 RETURN JUMPDEST CALLVALUE DUP1 ISZERO PUSH2 0x128 JUMPI PUSH0 PUSH0 REVERT JUMPDEST POP PUSH2 0x143 PUSH1 0x4 DUP1 CALLDATASIZE SUB DUP2 ADD SWAP1 PUSH2 0x13E SWAP2 SWAP1 PUSH2 0x6E8 JUMP JUMPDEST PUSH2 0x330 JUMP JUMPDEST STOP JUMPDEST PUSH1 0x1 PUSH1 0x15 SWAP1 SLOAD SWAP1 PUSH2 0x100 EXP SWAP1 DIV PUSH1 0xFF AND DUP2 JUMP JUMPDEST PUSH2 0x172 PUSH1 0x1 PUSH0 SWAP1 SLOAD SWAP1 PUSH2 0x100 EXP SWAP1 DIV PUSH1 0xFF AND PUSH1 0xFF AND PUSH2 0x2F0 JUMP JUMPDEST CALLVALUE LT PUSH2 0x249 JUMPI PUSH0 PUSH2 0x193 PUSH1 0x1 PUSH0 SWAP1 SLOAD SWAP1 PUSH2 0x100 EXP SWAP1 DIV PUSH1 0xFF AND PUSH1 0xFF AND PUSH2 0x2F0 JUMP JUMPDEST CALLVALUE PUSH2 0x19E SWAP2 SWAP1 PUSH2 0x76F JUMP JUMPDEST SWAP1 POP PUSH0 DUP2 GT ISZERO PUSH2 0x1ED JUMPI CALLER PUSH20 0xFFFFFFFFFFFFFFFFFFFFFFFFFFFFFFFFFFFFFFFF AND PUSH2 0x8FC DUP3 SWAP1 DUP2 ISZERO MUL SWAP1 PUSH1 0x40 MLOAD PUSH0 PUSH1 0x40 MLOAD DUP1 DUP4 SUB DUP2 DUP6 DUP9 DUP9 CALL SWAP4 POP POP POP POP ISZERO DUP1 ISZERO PUSH2 0x1EB JUMPI RETURNDATASIZE PUSH0 PUSH0 RETURNDATACOPY RETURNDATASIZE PUSH0 REVERT JUMPDEST POP JUMPDEST CALLER PUSH1 0x1 DUP1 PUSH2 0x100 EXP DUP2 SLOAD DUP2 PUSH20 0xFFFFFFFFFFFFFFFFFFFFFFFFFFFFFFFFFFFFFFFF MUL NOT AND SWAP1 DUP4 PUSH20 0xFFFFFFFFFFFFFFFFFFFFFFFFFFFFFFFFFFFFFFFF AND MUL OR SWAP1 SSTORE POP PUSH1 0x1 DUP1 PUSH1 0x15 PUSH2 0x100 EXP DUP2 SLOAD DUP2 PUSH1 0xFF MUL NOT AND SWAP1 DUP4 ISZERO ISZERO MUL OR SWAP1 SSTORE POP POP JUMPDEST JUMP JUMPDEST PUSH1 0x60 PUSH0 PUSH0 PUSH1 0x1 PUSH0 SWAP1 SLOAD SWAP1 PUSH2 0x100 EXP SWAP1 DIV PUSH1 0xFF AND DUP2 DUP1 SLOAD PUSH2 0x26A SWAP1 PUSH2 0x7CF JUMP JUMPDEST DUP1 PUSH1 0x1F ADD PUSH1 0x20 DUP1 SWAP2 DIV MUL PUSH1 0x20 ADD PUSH1 0x40 MLOAD SWAP1 DUP2 ADD PUSH1 0x40 MSTORE DUP1 SWAP3 SWAP2 SWAP1 DUP2 DUP2 MSTORE PUSH1 0x20 ADD DUP3 DUP1 SLOAD PUSH2 0x296 SWAP1 PUSH2 0x7CF JUMP JUMPDEST DUP1 ISZERO PUSH2 0x2E1 JUMPI DUP1 PUSH1 0x1F LT PUSH2 0x2B8 JUMPI PUSH2 0x100 DUP1 DUP4 SLOAD DIV MUL DUP4 MSTORE SWAP2 PUSH1 0x20 ADD SWAP2 PUSH2 0x2E1 JUMP JUMPDEST DUP3 ADD SWAP2 SWAP1 PUSH0 MSTORE PUSH1 0x20 PUSH0 KECCAK256 SWAP1 JUMPDEST DUP2 SLOAD DUP2 MSTORE SWAP1 PUSH1 0x1 ADD SWAP1 PUSH1 0x20 ADD DUP1 DUP4 GT PUSH2 0x2C4 JUMPI DUP3 SWAP1 SUB PUSH1 0x1F AND DUP3 ADD SWAP2 JUMPDEST POP POP POP POP POP SWAP2 POP SWAP2 POP SWAP2 POP SWAP1 SWAP2 JUMP JUMPDEST PUSH0 PUSH8 0xDE0B6B3A7640000 DUP3 PUSH2 0x305 SWAP2 SWAP1 PUSH2 0x7FF JUMP JUMPDEST SWAP1 POP SWAP2 SWAP1 POP JUMP JUMPDEST PUSH1 0x1 DUP1 SLOAD SWAP1 PUSH2 0x100 EXP SWAP1 DIV PUSH20 0xFFFFFFFFFFFFFFFFFFFFFFFFFFFFFFFFFFFFFFFF AND DUP2 JUMP JUMPDEST DUP2 PUSH0 SWAP1 DUP2 PUSH2 0x33E SWAP2 SWAP1 PUSH2 0x9E0 JUMP JUMPDEST POP DUP1 PUSH1 0x1 PUSH0 PUSH2 0x100 EXP DUP2 SLOAD DUP2 PUSH1 0xFF MUL NOT AND SWAP1 DUP4 PUSH1 0xFF AND MUL OR SWAP1 SSTORE POP CALLER PUSH1 0x1 DUP1 PUSH2 0x100 EXP DUP2 SLOAD DUP2 PUSH20 0xFFFFFFFFFFFFFFFFFFFFFFFFFFFFFFFFFFFFFFFF MUL NOT AND SWAP1 DUP4 PUSH20 0xFFFFFFFFFFFFFFFFFFFFFFFFFFFFFFFFFFFFFFFF AND MUL OR SWAP1 SSTORE POP PUSH0 PUSH1 0x1 PUSH1 0x15 PUSH2 0x100 EXP DUP2 SLOAD DUP2 PUSH1 0xFF MUL NOT AND SWAP1 DUP4 ISZERO ISZERO MUL OR SWAP1 SSTORE POP POP POP JUMP JUMPDEST PUSH0 DUP2 ISZERO ISZERO SWAP1 POP SWAP2 SWAP1 POP JUMP JUMPDEST PUSH2 0x3CB DUP2 PUSH2 0x3B7 JUMP JUMPDEST DUP3 MSTORE POP POP JUMP JUMPDEST PUSH0 PUSH1 0x20 DUP3 ADD SWAP1 POP PUSH2 0x3E4 PUSH0 DUP4 ADD DUP5 PUSH2 0x3C2 JUMP JUMPDEST SWAP3 SWAP2 POP POP JUMP JUMPDEST PUSH0 DUP2 MLOAD SWAP1 POP SWAP2 SWAP1 POP JUMP JUMPDEST PUSH0 DUP3 DUP3 MSTORE PUSH1 0x20 DUP3 ADD SWAP1 POP SWAP3 SWAP2 POP POP JUMP JUMPDEST DUP3 DUP2 DUP4 MCOPY PUSH0 DUP4 DUP4 ADD MSTORE POP POP POP JUMP JUMPDEST PUSH0 PUSH1 0x1F NOT PUSH1 0x1F DUP4 ADD AND SWAP1 POP SWAP2 SWAP1 POP JUMP JUMPDEST PUSH0 PUSH2 0x42C DUP3 PUSH2 0x3EA JUMP JUMPDEST PUSH2 0x436 DUP2 DUP6 PUSH2 0x3F4 JUMP JUMPDEST SWAP4 POP PUSH2 0x446 DUP2 DUP6 PUSH1 0x20 DUP7 ADD PUSH2 0x404 JUMP JUMPDEST PUSH2 0x44F DUP2 PUSH2 0x412 JUMP JUMPDEST DUP5 ADD SWAP2 POP POP SWAP3 SWAP2 POP POP JUMP JUMPDEST PUSH0 PUSH1 0xFF DUP3 AND SWAP1 POP SWAP2 SWAP1 POP JUMP JUMPDEST PUSH2 0x46F DUP2 PUSH2 0x45A JUMP JUMPDEST DUP3 MSTORE POP POP JUMP JUMPDEST PUSH0 PUSH1 0x40 DUP3 ADD SWAP1 POP DUP2 DUP2 SUB PUSH0 DUP4 ADD MSTORE PUSH2 0x48D DUP2 DUP6 PUSH2 0x422 JUMP JUMPDEST SWAP1 POP PUSH2 0x49C PUSH1 0x20 DUP4 ADD DUP5 PUSH2 0x466 JUMP JUMPDEST SWAP4 SWAP3 POP POP POP JUMP JUMPDEST PUSH0 PUSH1 0x40 MLOAD SWAP1 POP SWAP1 JUMP JUMPDEST PUSH0 PUSH0 REVERT JUMPDEST PUSH0 PUSH0 REVERT JUMPDEST PUSH0 DUP2 SWAP1 POP SWAP2 SWAP1 POP JUMP JUMPDEST PUSH2 0x4C6 DUP2 PUSH2 0x4B4 JUMP JUMPDEST DUP2 EQ PUSH2 0x4D0 JUMPI PUSH0 PUSH0 REVERT JUMPDEST POP JUMP JUMPDEST PUSH0 DUP2 CALLDATALOAD SWAP1 POP PUSH2 0x4E1 DUP2 PUSH2 0x4BD JUMP JUMPDEST SWAP3 SWAP2 POP POP JUMP JUMPDEST PUSH0 PUSH1 0x20 DUP3 DUP5 SUB SLT ISZERO PUSH2 0x4FC JUMPI PUSH2 0x4FB PUSH2 0x4AC JUMP JUMPDEST JUMPDEST PUSH0 PUSH2 0x509 DUP5 DUP3 DUP6 ADD PUSH2 0x4D3 JUMP JUMPDEST SWAP2 POP POP SWAP3 SWAP2 POP POP JUMP JUMPDEST PUSH2 0x51B DUP2 PUSH2 0x4B4 JUMP JUMPDEST DUP3 MSTORE POP POP JUMP JUMPDEST PUSH0 PUSH1 0x20 DUP3 ADD SWAP1 POP PUSH2 0x534 PUSH0 DUP4 ADD DUP5 PUSH2 0x512 JUMP JUMPDEST SWAP3 SWAP2 POP POP JUMP JUMPDEST PUSH0 PUSH20 0xFFFFFFFFFFFFFFFFFFFFFFFFFFFFFFFFFFFFFFFF DUP3 AND SWAP1 POP SWAP2 SWAP1 POP JUMP JUMPDEST PUSH0 PUSH2 0x563 DUP3 PUSH2 0x53A JUMP JUMPDEST SWAP1 POP SWAP2 SWAP1 POP JUMP JUMPDEST PUSH2 0x573 DUP2 PUSH2 0x559 JUMP JUMPDEST DUP3 MSTORE POP POP JUMP JUMPDEST PUSH0 PUSH1 0x20 DUP3 ADD SWAP1 POP PUSH2 0x58C PUSH0 DUP4 ADD DUP5 PUSH2 0x56A JUMP JUMPDEST SWAP3 SWAP2 POP POP JUMP JUMPDEST PUSH0 PUSH0 REVERT JUMPDEST PUSH0 PUSH0 REVERT JUMPDEST PUSH32 0x4E487B7100000000000000000000000000000000000000000000000000000000 PUSH0 MSTORE PUSH1 0x41 PUSH1 0x4 MSTORE PUSH1 0x24 PUSH0 REVERT JUMPDEST PUSH2 0x5D0 DUP3 PUSH2 0x412 JUMP JUMPDEST DUP2 ADD DUP2 DUP2 LT PUSH8 0xFFFFFFFFFFFFFFFF DUP3 GT OR ISZERO PUSH2 0x5EF JUMPI PUSH2 0x5EE PUSH2 0x59A JUMP JUMPDEST JUMPDEST DUP1 PUSH1 0x40 MSTORE POP POP POP JUMP JUMPDEST PUSH0 PUSH2 0x601 PUSH2 0x4A3 JUMP JUMPDEST SWAP1 POP PUSH2 0x60D DUP3 DUP3 PUSH2 0x5C7 JUMP JUMPDEST SWAP2 SWAP1 POP JUMP JUMPDEST PUSH0 PUSH8 0xFFFFFFFFFFFFFFFF DUP3 GT ISZERO PUSH2 0x62C JUMPI PUSH2 0x62B PUSH2 0x59A JUMP JUMPDEST JUMPDEST PUSH2 0x635 DUP3 PUSH2 0x412 JUMP JUMPDEST SWAP1 POP PUSH1 0x20 DUP2 ADD SWAP1 POP SWAP2 SWAP1 POP JUMP JUMPDEST DUP3 DUP2 DUP4 CALLDATACOPY PUSH0 DUP4 DUP4 ADD MSTORE POP POP POP JUMP JUMPDEST PUSH0 PUSH2 0x662 PUSH2 0x65D DUP5 PUSH2 0x612 JUMP JUMPDEST PUSH2 0x5F8 JUMP JUMPDEST SWAP1 POP DUP3 DUP2 MSTORE PUSH1 0x20 DUP2 ADD DUP5 DUP5 DUP5 ADD GT ISZERO PUSH2 0x67E JUMPI PUSH2 0x67D PUSH2 0x596 JUMP JUMPDEST JUMPDEST PUSH2 0x689 DUP5 DUP3 DUP6 PUSH2 0x642 JUMP JUMPDEST POP SWAP4 SWAP3 POP POP POP JUMP JUMPDEST PUSH0 DUP3 PUSH1 0x1F DUP4 ADD SLT PUSH2 0x6A5 JUMPI PUSH2 0x6A4 PUSH2 0x592 JUMP JUMPDEST JUMPDEST DUP2 CALLDATALOAD PUSH2 0x6B5 DUP5 DUP3 PUSH1 0x20 DUP7 ADD PUSH2 0x650 JUMP JUMPDEST SWAP2 POP POP SWAP3 SWAP2 POP POP JUMP JUMPDEST PUSH2 0x6C7 DUP2 PUSH2 0x45A JUMP JUMPDEST DUP2 EQ PUSH2 0x6D1 JUMPI PUSH0 PUSH0 REVERT JUMPDEST POP JUMP JUMPDEST PUSH0 DUP2 CALLDATALOAD SWAP1 POP PUSH2 0x6E2 DUP2 PUSH2 0x6BE JUMP JUMPDEST SWAP3 SWAP2 POP POP JUMP JUMPDEST PUSH0 PUSH0 PUSH1 0x40 DUP4 DUP6 SUB SLT ISZERO PUSH2 0x6FE JUMPI PUSH2 0x6FD PUSH2 0x4AC JUMP JUMPDEST JUMPDEST PUSH0 DUP4 ADD CALLDATALOAD PUSH8 0xFFFFFFFFFFFFFFFF DUP2 GT ISZERO PUSH2 0x71B JUMPI PUSH2 0x71A PUSH2 0x4B0 JUMP JUMPDEST JUMPDEST PUSH2 0x727 DUP6 DUP3 DUP7 ADD PUSH2 0x691 JUMP JUMPDEST SWAP3 POP POP PUSH1 0x20 PUSH2 0x738 DUP6 DUP3 DUP7 ADD PUSH2 0x6D4 JUMP JUMPDEST SWAP2 POP POP SWAP3 POP SWAP3 SWAP1 POP JUMP JUMPDEST PUSH32 0x4E487B7100000000000000000000000000000000000000000000000000000000 PUSH0 MSTORE PUSH1 0x11 PUSH1 0x4 MSTORE PUSH1 0x24 PUSH0 REVERT JUMPDEST PUSH0 PUSH2 0x779 DUP3 PUSH2 0x4B4 JUMP JUMPDEST SWAP2 POP PUSH2 0x784 DUP4 PUSH2 0x4B4 JUMP JUMPDEST SWAP3 POP DUP3 DUP3 SUB SWAP1 POP DUP2 DUP2 GT ISZERO PUSH2 0x79C JUMPI PUSH2 0x79B PUSH2 0x742 JUMP JUMPDEST JUMPDEST SWAP3 SWAP2 POP POP JUMP JUMPDEST PUSH32 0x4E487B7100000000000000000000000000000000000000000000000000000000 PUSH0 MSTORE PUSH1 0x22 PUSH1 0x4 MSTORE PUSH1 0x24 PUSH0 REVERT JUMPDEST PUSH0 PUSH1 0x2 DUP3 DIV SWAP1 POP PUSH1 0x1 DUP3 AND DUP1 PUSH2 0x7E6 JUMPI PUSH1 0x7F DUP3 AND SWAP2 POP JUMPDEST PUSH1 0x20 DUP3 LT DUP2 SUB PUSH2 0x7F9 JUMPI PUSH2 0x7F8 PUSH2 0x7A2 JUMP JUMPDEST JUMPDEST POP SWAP2 SWAP1 POP JUMP JUMPDEST PUSH0 PUSH2 0x809 DUP3 PUSH2 0x4B4 JUMP JUMPDEST SWAP2 POP PUSH2 0x814 DUP4 PUSH2 0x4B4 JUMP JUMPDEST SWAP3 POP DUP3 DUP3 MUL PUSH2 0x822 DUP2 PUSH2 0x4B4 JUMP JUMPDEST SWAP2 POP DUP3 DUP3 DIV DUP5 EQ DUP4 ISZERO OR PUSH2 0x839 JUMPI PUSH2 0x838 PUSH2 0x742 JUMP JUMPDEST JUMPDEST POP SWAP3 SWAP2 POP POP JUMP JUMPDEST PUSH0 DUP2 SWAP1 POP DUP2 PUSH0 MSTORE PUSH1 0x20 PUSH0 KECCAK256 SWAP1 POP SWAP2 SWAP1 POP JUMP JUMPDEST PUSH0 PUSH1 0x20 PUSH1 0x1F DUP4 ADD DIV SWAP1 POP SWAP2 SWAP1 POP JUMP JUMPDEST PUSH0 DUP3 DUP3 SHL SWAP1 POP SWAP3 SWAP2 POP POP JUMP JUMPDEST PUSH0 PUSH1 0x8 DUP4 MUL PUSH2 0x89C PUSH32 0xFFFFFFFFFFFFFFFFFFFFFFFFFFFFFFFFFFFFFFFFFFFFFFFFFFFFFFFFFFFFFFFF DUP3 PUSH2 0x861 JUMP JUMPDEST PUSH2 0x8A6 DUP7 DUP4 PUSH2 0x861 JUMP JUMPDEST SWAP6 POP DUP1 NOT DUP5 AND SWAP4 POP DUP1 DUP7 AND DUP5 OR SWAP3 POP POP POP SWAP4 SWAP3 POP POP POP JUMP JUMPDEST PUSH0 DUP2 SWAP1 POP SWAP2 SWAP1 POP JUMP JUMPDEST PUSH0 PUSH2 0x8E1 PUSH2 0x8DC PUSH2 0x8D7 DUP5 PUSH2 0x4B4 JUMP JUMPDEST PUSH2 0x8BE JUMP JUMPDEST PUSH2 0x4B4 JUMP JUMPDEST SWAP1 POP SWAP2 SWAP1 POP JUMP JUMPDEST PUSH0 DUP2 SWAP1 POP SWAP2 SWAP1 POP JUMP JUMPDEST PUSH2 0x8FA DUP4 PUSH2 0x8C7 JUMP JUMPDEST PUSH2 0x90E PUSH2 0x906 DUP3 PUSH2 0x8E8 JUMP JUMPDEST DUP5 DUP5 SLOAD PUSH2 0x86D JUMP JUMPDEST DUP3 SSTORE POP POP POP POP JUMP JUMPDEST PUSH0 PUSH0 SWAP1 POP SWAP1 JUMP JUMPDEST PUSH2 0x925 PUSH2 0x916 JUMP JUMPDEST PUSH2 0x930 DUP2 DUP5 DUP5 PUSH2 0x8F1 JUMP JUMPDEST POP POP POP JUMP JUMPDEST JUMPDEST DUP2 DUP2 LT ISZERO PUSH2 0x953 JUMPI PUSH2 0x948 PUSH0 DUP3 PUSH2 0x91D JUMP JUMPDEST PUSH1 0x1 DUP2 ADD SWAP1 POP PUSH2 0x936 JUMP JUMPDEST POP POP JUMP JUMPDEST PUSH1 0x1F DUP3 GT ISZERO PUSH2 0x998 JUMPI PUSH2 0x969 DUP2 PUSH2 0x840 JUMP JUMPDEST PUSH2 0x972 DUP5 PUSH2 0x852 JUMP JUMPDEST DUP2 ADD PUSH1 0x20 DUP6 LT ISZERO PUSH2 0x981 JUMPI DUP2 SWAP1 POP JUMPDEST PUSH2 0x995 PUSH2 0x98D DUP6 PUSH2 0x852 JUMP JUMPDEST DUP4 ADD DUP3 PUSH2 0x935 JUMP JUMPDEST POP POP JUMPDEST POP POP POP JUMP JUMPDEST PUSH0 DUP3 DUP3 SHR SWAP1 POP SWAP3 SWAP2 POP POP JUMP JUMPDEST PUSH0 PUSH2 0x9B8 PUSH0 NOT DUP5 PUSH1 0x8 MUL PUSH2 0x99D JUMP JUMPDEST NOT DUP1 DUP4 AND SWAP2 POP POP SWAP3 SWAP2 POP POP JUMP JUMPDEST PUSH0 PUSH2 0x9D0 DUP4 DUP4 PUSH2 0x9A9 JUMP JUMPDEST SWAP2 POP DUP3 PUSH1 0x2 MUL DUP3 OR SWAP1 POP SWAP3 SWAP2 POP POP JUMP JUMPDEST PUSH2 0x9E9 DUP3 PUSH2 0x3EA JUMP JUMPDEST PUSH8 0xFFFFFFFFFFFFFFFF DUP2 GT ISZERO PUSH2 0xA02 JUMPI PUSH2 0xA01 PUSH2 0x59A JUMP JUMPDEST JUMPDEST PUSH2 0xA0C DUP3 SLOAD PUSH2 0x7CF JUMP JUMPDEST PUSH2 0xA17 DUP3 DUP3 DUP6 PUSH2 0x957 JUMP JUMPDEST PUSH0 PUSH1 0x20 SWAP1 POP PUSH1 0x1F DUP4 GT PUSH1 0x1 DUP2 EQ PUSH2 0xA48 JUMPI PUSH0 DUP5 ISZERO PUSH2 0xA36 JUMPI DUP3 DUP8 ADD MLOAD SWAP1 POP JUMPDEST PUSH2 0xA40 DUP6 DUP3 PUSH2 0x9C5 JUMP JUMPDEST DUP7 SSTORE POP PUSH2 0xAA7 JUMP JUMPDEST PUSH1 0x1F NOT DUP5 AND PUSH2 0xA56 DUP7 PUSH2 0x840 JUMP JUMPDEST PUSH0 JUMPDEST DUP3 DUP2 LT ISZERO PUSH2 0xA7D JUMPI DUP5 DUP10 ADD MLOAD DUP3 SSTORE PUSH1 0x1 DUP3 ADD SWAP2 POP PUSH1 0x20 DUP6 ADD SWAP5 POP PUSH1 0x20 DUP2 ADD SWAP1 POP PUSH2 0xA58 JUMP JUMPDEST DUP7 DUP4 LT ISZERO PUSH2 0xA9A JUMPI DUP5 DUP10 ADD MLOAD PUSH2 0xA96 PUSH1 0x1F DUP10 AND DUP3 PUSH2 0x9A9 JUMP JUMPDEST DUP4 SSTORE POP JUMPDEST PUSH1 0x1 PUSH1 0x2 DUP9 MUL ADD DUP9 SSTORE POP POP POP JUMPDEST POP POP POP POP POP POP JUMP INVALID LOG2 PUSH5 0x6970667358 0x22 SLT KECCAK256 PUSH15 0x722FF647503F26CE08C7990A3700D1 0x2F SWAP11 0xDE 0xAE MSIZE 0x28 SSTORE 0xB6 0xB7 0xE9 RETURNDATACOPY 0xCD 0xDF SWAP13 0xE3 CALLCODE PUSH5 0x736F6C6343 STOP ADDMOD SHR STOP CALLER "
		},
		"gasEstimates": {
			"creation": {
				"codeDepositCost": "557800",
				"executionCost": "592",
				"totalCost": "558392"
			},
			"external": {
				"buyBook()": "infinite",
				"ethToWei(uint256)": "infinite",
				"getBookTitle()": "infinite",
				"owner()": "2622",
				"setBookTitle(string,uint8)": "infinite",
				"sold()": "2495"
			}
		},
		"methodIdentifiers": {
			"buyBook()": "189a55e7",
			"ethToWei(uint256)": "88439bbc",
			"getBookTitle()": "72e46388",
			"owner()": "8da5cb5b",
			"setBookTitle(string,uint8)": "c5eebe4c",
			"sold()": "02c7e7af"
		}
	},
	"abi": [
		{
			"inputs": [],
			"name": "buyBook",
			"outputs": [],
			"stateMutability": "payable",
			"type": "function"
		},
		{
			"inputs": [
				{
					"internalType": "uint256",
					"name": "eval",
					"type": "uint256"
				}
			],
			"name": "ethToWei",
			"outputs": [
				{
					"internalType": "uint256",
					"name": "",
					"type": "uint256"
				}
			],
			"stateMutability": "pure",
			"type": "function"
		},
		{
			"inputs": [],
			"name": "getBookTitle",
			"outputs": [
				{
					"internalType": "string",
					"name": "",
					"type": "string"
				},
				{
					"internalType": "uint8",
					"name": "",
					"type": "uint8"
				}
			],
			"stateMutability": "view",
			"type": "function"
		},
		{
			"inputs": [],
			"name": "owner",
			"outputs": [
				{
					"internalType": "address",
					"name": "",
					"type": "address"
				}
			],
			"stateMutability": "view",
			"type": "function"
		},
		{
			"inputs": [
				{
					"internalType": "string",
					"name": "_title",
					"type": "string"
				},
				{
					"internalType": "uint8",
					"name": "_price",
					"type": "uint8"
				}
			],
			"name": "setBookTitle",
			"outputs": [],
			"stateMutability": "nonpayable",
			"type": "function"
		},
		{
			"inputs": [],
			"name": "sold",
			"outputs": [
				{
					"internalType": "bool",
					"name": "",
					"type": "bool"
				}
			],
			"stateMutability": "view",
			"type": "function"
		}
	]
}