{
	"data": {
		"bytecode": {
			"linkReferences": {},
			"object": "6080604052348015600e575f5ffd5b50610b868061001c5f395ff3fe608060405260043610610049575f3560e01c8063189a55e71461004d57806372e463881461005757806388439bbc14610082578063aab27ef7146100be578063c5eebe4c146100eb575b5f5ffd5b610055610113565b005b348015610062575f5ffd5b5061006b610210565b6040516100799291906104cb565b60405180910390f35b34801561008d575f5ffd5b506100a860048036038101906100a3919061053d565b6102b9565b6040516100b59190610577565b60405180910390f35b3480156100c9575f5ffd5b506100d26102d5565b6040516100e294939291906105e9565b60405180910390f35b3480156100f6575f5ffd5b50610111600480360381019061010c9190610789565b6103b0565b005b61012f5f6001015f9054906101000a900460ff1660ff166102b9565b341061020e575f6101525f6001015f9054906101000a900460ff1660ff166102b9565b3461015d9190610810565b90505f8111156101ac573373ffffffffffffffffffffffffffffffffffffffff166108fc8290811502906040515f60405180830381858888f193505050501580156101aa573d5f5f3e3d5ffd5b505b335f60010160016101000a81548173ffffffffffffffffffffffffffffffffffffffff021916908373ffffffffffffffffffffffffffffffffffffffff16021790555060015f60010160156101000a81548160ff021916908315150217905550505b565b60605f5f5f015f6001015f9054906101000a900460ff1681805461023390610870565b80601f016020809104026020016040519081016040528092919081815260200182805461025f90610870565b80156102aa5780601f10610281576101008083540402835291602001916102aa565b820191905f5260205f20905b81548152906001019060200180831161028d57829003601f168201915b50505050509150915091509091565b5f670de0b6b3a7640000826102ce91906108a0565b9050919050565b5f805f0180546102e490610870565b80601f016020809104026020016040519081016040528092919081815260200182805461031090610870565b801561035b5780601f106103325761010080835404028352916020019161035b565b820191905f5260205f20905b81548152906001019060200180831161033e57829003601f168201915b505050505090806001015f9054906101000a900460ff16908060010160019054906101000a900473ffffffffffffffffffffffffffffffffffffffff16908060010160159054906101000a900460ff16905084565b815f5f0190816103c09190610a81565b50805f6001015f6101000a81548160ff021916908360ff160217905550335f60010160016101000a81548173ffffffffffffffffffffffffffffffffffffffff021916908373ffffffffffffffffffffffffffffffffffffffff1602179055505f5f60010160156101000a81548160ff0219169083151502179055505050565b5f81519050919050565b5f82825260208201905092915050565b8281835e5f83830152505050565b5f601f19601f8301169050919050565b5f61048282610440565b61048c818561044a565b935061049c81856020860161045a565b6104a581610468565b840191505092915050565b5f60ff82169050919050565b6104c5816104b0565b82525050565b5f6040820190508181035f8301526104e38185610478565b90506104f260208301846104bc565b9392505050565b5f604051905090565b5f5ffd5b5f5ffd5b5f819050919050565b61051c8161050a565b8114610526575f5ffd5b50565b5f8135905061053781610513565b92915050565b5f6020828403121561055257610551610502565b5b5f61055f84828501610529565b91505092915050565b6105718161050a565b82525050565b5f60208201905061058a5f830184610568565b92915050565b5f73ffffffffffffffffffffffffffffffffffffffff82169050919050565b5f6105b982610590565b9050919050565b6105c9816105af565b82525050565b5f8115159050919050565b6105e3816105cf565b82525050565b5f6080820190508181035f8301526106018187610478565b905061061060208301866104bc565b61061d60408301856105c0565b61062a60608301846105da565b95945050505050565b5f5ffd5b5f5ffd5b7f4e487b71000000000000000000000000000000000000000000000000000000005f52604160045260245ffd5b61067182610468565b810181811067ffffffffffffffff821117156106905761068f61063b565b5b80604052505050565b5f6106a26104f9565b90506106ae8282610668565b919050565b5f67ffffffffffffffff8211156106cd576106cc61063b565b5b6106d682610468565b9050602081019050919050565b828183375f83830152505050565b5f6107036106fe846106b3565b610699565b90508281526020810184848401111561071f5761071e610637565b5b61072a8482856106e3565b509392505050565b5f82601f83011261074657610745610633565b5b81356107568482602086016106f1565b91505092915050565b610768816104b0565b8114610772575f5ffd5b50565b5f813590506107838161075f565b92915050565b5f5f6040838503121561079f5761079e610502565b5b5f83013567ffffffffffffffff8111156107bc576107bb610506565b5b6107c885828601610732565b92505060206107d985828601610775565b9150509250929050565b7f4e487b71000000000000000000000000000000000000000000000000000000005f52601160045260245ffd5b5f61081a8261050a565b91506108258361050a565b925082820390508181111561083d5761083c6107e3565b5b92915050565b7f4e487b71000000000000000000000000000000000000000000000000000000005f52602260045260245ffd5b5f600282049050600182168061088757607f821691505b60208210810361089a57610899610843565b5b50919050565b5f6108aa8261050a565b91506108b58361050a565b92508282026108c38161050a565b915082820484148315176108da576108d96107e3565b5b5092915050565b5f819050815f5260205f209050919050565b5f6020601f8301049050919050565b5f82821b905092915050565b5f6008830261093d7fffffffffffffffffffffffffffffffffffffffffffffffffffffffffffffffff82610902565b6109478683610902565b95508019841693508086168417925050509392505050565b5f819050919050565b5f61098261097d6109788461050a565b61095f565b61050a565b9050919050565b5f819050919050565b61099b83610968565b6109af6109a782610989565b84845461090e565b825550505050565b5f5f905090565b6109c66109b7565b6109d1818484610992565b505050565b5b818110156109f4576109e95f826109be565b6001810190506109d7565b5050565b601f821115610a3957610a0a816108e1565b610a13846108f3565b81016020851015610a22578190505b610a36610a2e856108f3565b8301826109d6565b50505b505050565b5f82821c905092915050565b5f610a595f1984600802610a3e565b1980831691505092915050565b5f610a718383610a4a565b9150826002028217905092915050565b610a8a82610440565b67ffffffffffffffff811115610aa357610aa261063b565b5b610aad8254610870565b610ab88282856109f8565b5f60209050601f831160018114610ae9575f8415610ad7578287015190505b610ae18582610a66565b865550610b48565b601f198416610af7866108e1565b5f5b82811015610b1e57848901518255600182019150602085019450602081019050610af9565b86831015610b3b5784890151610b37601f891682610a4a565b8355505b6001600288020188555050505b50505050505056fea264697066735822122008b8e508c54099dce2d0cf4525ba6af35c828f93f7519e8ef9198d56fe39c46564736f6c634300081c0033",
			"opcodes": "PUSH1 0x80 PUSH1 0x40 MSTORE CALLVALUE DUP1 ISZERO PUSH1 0xE JUMPI PUSH0 PUSH0 REVERT JUMPDEST POP PUSH2 0xB86 DUP1 PUSH2 0x1C PUSH0 CODECOPY PUSH0 RETURN INVALID PUSH1 0x80 PUSH1 0x40 MSTORE PUSH1 0x4 CALLDATASIZE LT PUSH2 0x49 JUMPI PUSH0 CALLDATALOAD PUSH1 0xE0 SHR DUP1 PUSH4 0x189A55E7 EQ PUSH2 0x4D JUMPI DUP1 PUSH4 0x72E46388 EQ PUSH2 0x57 JUMPI DUP1 PUSH4 0x88439BBC EQ PUSH2 0x82 JUMPI DUP1 PUSH4 0xAAB27EF7 EQ PUSH2 0xBE JUMPI DUP1 PUSH4 0xC5EEBE4C EQ PUSH2 0xEB JUMPI JUMPDEST PUSH0 PUSH0 REVERT JUMPDEST PUSH2 0x55 PUSH2 0x113 JUMP JUMPDEST STOP JUMPDEST CALLVALUE DUP1 ISZERO PUSH2 0x62 JUMPI PUSH0 PUSH0 REVERT JUMPDEST POP PUSH2 0x6B PUSH2 0x210 JUMP JUMPDEST PUSH1 0x40 MLOAD PUSH2 0x79 SWAP3 SWAP2 SWAP1 PUSH2 0x4CB JUMP JUMPDEST PUSH1 0x40 MLOAD DUP1 SWAP2 SUB SWAP1 RETURN JUMPDEST CALLVALUE DUP1 ISZERO PUSH2 0x8D JUMPI PUSH0 PUSH0 REVERT JUMPDEST POP PUSH2 0xA8 PUSH1 0x4 DUP1 CALLDATASIZE SUB DUP2 ADD SWAP1 PUSH2 0xA3 SWAP2 SWAP1 PUSH2 0x53D JUMP JUMPDEST PUSH2 0x2B9 JUMP JUMPDEST PUSH1 0x40 MLOAD PUSH2 0xB5 SWAP2 SWAP1 PUSH2 0x577 JUMP JUMPDEST PUSH1 0x40 MLOAD DUP1 SWAP2 SUB SWAP1 RETURN JUMPDEST CALLVALUE DUP1 ISZERO PUSH2 0xC9 JUMPI PUSH0 PUSH0 REVERT JUMPDEST POP PUSH2 0xD2 PUSH2 0x2D5 JUMP JUMPDEST PUSH1 0x40 MLOAD PUSH2 0xE2 SWAP5 SWAP4 SWAP3 SWAP2 SWAP1 PUSH2 0x5E9 JUMP JUMPDEST PUSH1 0x40 MLOAD DUP1 SWAP2 SUB SWAP1 RETURN JUMPDEST CALLVALUE DUP1 ISZERO PUSH2 0xF6 JUMPI PUSH0 PUSH0 REVERT JUMPDEST POP PUSH2 0x111 PUSH1 0x4 DUP1 CALLDATASIZE SUB DUP2 ADD SWAP1 PUSH2 0x10C SWAP2 SWAP1 PUSH2 0x789 JUMP JUMPDEST PUSH2 0x3B0 JUMP JUMPDEST STOP JUMPDEST PUSH2 0x12F PUSH0 PUSH1 0x1 ADD PUSH0 SWAP1 SLOAD SWAP1 PUSH2 0x100 EXP SWAP1 DIV PUSH1 0xFF AND PUSH1 0xFF AND PUSH2 0x2B9 JUMP JUMPDEST CALLVALUE LT PUSH2 0x20E JUMPI PUSH0 PUSH2 0x152 PUSH0 PUSH1 0x1 ADD PUSH0 SWAP1 SLOAD SWAP1 PUSH2 0x100 EXP SWAP1 DIV PUSH1 0xFF AND PUSH1 0xFF AND PUSH2 0x2B9 JUMP JUMPDEST CALLVALUE PUSH2 0x15D SWAP2 SWAP1 PUSH2 0x810 JUMP JUMPDEST SWAP1 POP PUSH0 DUP2 GT ISZERO PUSH2 0x1AC JUMPI CALLER PUSH20 0xFFFFFFFFFFFFFFFFFFFFFFFFFFFFFFFFFFFFFFFF AND PUSH2 0x8FC DUP3 SWAP1 DUP2 ISZERO MUL SWAP1 PUSH1 0x40 MLOAD PUSH0 PUSH1 0x40 MLOAD DUP1 DUP4 SUB DUP2 DUP6 DUP9 DUP9 CALL SWAP4 POP POP POP POP ISZERO DUP1 ISZERO PUSH2 0x1AA JUMPI RETURNDATASIZE PUSH0 PUSH0 RETURNDATACOPY RETURNDATASIZE PUSH0 REVERT JUMPDEST POP JUMPDEST CALLER PUSH0 PUSH1 0x1 ADD PUSH1 0x1 PUSH2 0x100 EXP DUP2 SLOAD DUP2 PUSH20 0xFFFFFFFFFFFFFFFFFFFFFFFFFFFFFFFFFFFFFFFF MUL NOT AND SWAP1 DUP4 PUSH20 0xFFFFFFFFFFFFFFFFFFFFFFFFFFFFFFFFFFFFFFFF AND MUL OR SWAP1 SSTORE POP PUSH1 0x1 PUSH0 PUSH1 0x1 ADD PUSH1 0x15 PUSH2 0x100 EXP DUP2 SLOAD DUP2 PUSH1 0xFF MUL NOT AND SWAP1 DUP4 ISZERO ISZERO MUL OR SWAP1 SSTORE POP POP JUMPDEST JUMP JUMPDEST PUSH1 0x60 PUSH0 PUSH0 PUSH0 ADD PUSH0 PUSH1 0x1 ADD PUSH0 SWAP1 SLOAD SWAP1 PUSH2 0x100 EXP SWAP1 DIV PUSH1 0xFF AND DUP2 DUP1 SLOAD PUSH2 0x233 SWAP1 PUSH2 0x870 JUMP JUMPDEST DUP1 PUSH1 0x1F ADD PUSH1 0x20 DUP1 SWAP2 DIV MUL PUSH1 0x20 ADD PUSH1 0x40 MLOAD SWAP1 DUP2 ADD PUSH1 0x40 MSTORE DUP1 SWAP3 SWAP2 SWAP1 DUP2 DUP2 MSTORE PUSH1 0x20 ADD DUP3 DUP1 SLOAD PUSH2 0x25F SWAP1 PUSH2 0x870 JUMP JUMPDEST DUP1 ISZERO PUSH2 0x2AA JUMPI DUP1 PUSH1 0x1F LT PUSH2 0x281 JUMPI PUSH2 0x100 DUP1 DUP4 SLOAD DIV MUL DUP4 MSTORE SWAP2 PUSH1 0x20 ADD SWAP2 PUSH2 0x2AA JUMP JUMPDEST DUP3 ADD SWAP2 SWAP1 PUSH0 MSTORE PUSH1 0x20 PUSH0 KECCAK256 SWAP1 JUMPDEST DUP2 SLOAD DUP2 MSTORE SWAP1 PUSH1 0x1 ADD SWAP1 PUSH1 0x20 ADD DUP1 DUP4 GT PUSH2 0x28D JUMPI DUP3 SWAP1 SUB PUSH1 0x1F AND DUP3 ADD SWAP2 JUMPDEST POP POP POP POP POP SWAP2 POP SWAP2 POP SWAP2 POP SWAP1 SWAP2 JUMP JUMPDEST PUSH0 PUSH8 0xDE0B6B3A7640000 DUP3 PUSH2 0x2CE SWAP2 SWAP1 PUSH2 0x8A0 JUMP JUMPDEST SWAP1 POP SWAP2 SWAP1 POP JUMP JUMPDEST PUSH0 DUP1 PUSH0 ADD DUP1 SLOAD PUSH2 0x2E4 SWAP1 PUSH2 0x870 JUMP JUMPDEST DUP1 PUSH1 0x1F ADD PUSH1 0x20 DUP1 SWAP2 DIV MUL PUSH1 0x20 ADD PUSH1 0x40 MLOAD SWAP1 DUP2 ADD PUSH1 0x40 MSTORE DUP1 SWAP3 SWAP2 SWAP1 DUP2 DUP2 MSTORE PUSH1 0x20 ADD DUP3 DUP1 SLOAD PUSH2 0x310 SWAP1 PUSH2 0x870 JUMP JUMPDEST DUP1 ISZERO PUSH2 0x35B JUMPI DUP1 PUSH1 0x1F LT PUSH2 0x332 JUMPI PUSH2 0x100 DUP1 DUP4 SLOAD DIV MUL DUP4 MSTORE SWAP2 PUSH1 0x20 ADD SWAP2 PUSH2 0x35B JUMP JUMPDEST DUP3 ADD SWAP2 SWAP1 PUSH0 MSTORE PUSH1 0x20 PUSH0 KECCAK256 SWAP1 JUMPDEST DUP2 SLOAD DUP2 MSTORE SWAP1 PUSH1 0x1 ADD SWAP1 PUSH1 0x20 ADD DUP1 DUP4 GT PUSH2 0x33E JUMPI DUP3 SWAP1 SUB PUSH1 0x1F AND DUP3 ADD SWAP2 JUMPDEST POP POP POP POP POP SWAP1 DUP1 PUSH1 0x1 ADD PUSH0 SWAP1 SLOAD SWAP1 PUSH2 0x100 EXP SWAP1 DIV PUSH1 0xFF AND SWAP1 DUP1 PUSH1 0x1 ADD PUSH1 0x1 SWAP1 SLOAD SWAP1 PUSH2 0x100 EXP SWAP1 DIV PUSH20 0xFFFFFFFFFFFFFFFFFFFFFFFFFFFFFFFFFFFFFFFF AND SWAP1 DUP1 PUSH1 0x1 ADD PUSH1 0x15 SWAP1 SLOAD SWAP1 PUSH2 0x100 EXP SWAP1 DIV PUSH1 0xFF AND SWAP1 POP DUP5 JUMP JUMPDEST DUP2 PUSH0 PUSH0 ADD SWAP1 DUP2 PUSH2 0x3C0 SWAP2 SWAP1 PUSH2 0xA81 JUMP JUMPDEST POP DUP1 PUSH0 PUSH1 0x1 ADD PUSH0 PUSH2 0x100 EXP DUP2 SLOAD DUP2 PUSH1 0xFF MUL NOT AND SWAP1 DUP4 PUSH1 0xFF AND MUL OR SWAP1 SSTORE POP CALLER PUSH0 PUSH1 0x1 ADD PUSH1 0x1 PUSH2 0x100 EXP DUP2 SLOAD DUP2 PUSH20 0xFFFFFFFFFFFFFFFFFFFFFFFFFFFFFFFFFFFFFFFF MUL NOT AND SWAP1 DUP4 PUSH20 0xFFFFFFFFFFFFFFFFFFFFFFFFFFFFFFFFFFFFFFFF AND MUL OR SWAP1 SSTORE POP PUSH0 PUSH0 PUSH1 0x1 ADD PUSH1 0x15 PUSH2 0x100 EXP DUP2 SLOAD DUP2 PUSH1 0xFF MUL NOT AND SWAP1 DUP4 ISZERO ISZERO MUL OR SWAP1 SSTORE POP POP POP JUMP JUMPDEST PUSH0 DUP2 MLOAD SWAP1 POP SWAP2 SWAP1 POP JUMP JUMPDEST PUSH0 DUP3 DUP3 MSTORE PUSH1 0x20 DUP3 ADD SWAP1 POP SWAP3 SWAP2 POP POP JUMP JUMPDEST DUP3 DUP2 DUP4 MCOPY PUSH0 DUP4 DUP4 ADD MSTORE POP POP POP JUMP JUMPDEST PUSH0 PUSH1 0x1F NOT PUSH1 0x1F DUP4 ADD AND SWAP1 POP SWAP2 SWAP1 POP JUMP JUMPDEST PUSH0 PUSH2 0x482 DUP3 PUSH2 0x440 JUMP JUMPDEST PUSH2 0x48C DUP2 DUP6 PUSH2 0x44A JUMP JUMPDEST SWAP4 POP PUSH2 0x49C DUP2 DUP6 PUSH1 0x20 DUP7 ADD PUSH2 0x45A JUMP JUMPDEST PUSH2 0x4A5 DUP2 PUSH2 0x468 JUMP JUMPDEST DUP5 ADD SWAP2 POP POP SWAP3 SWAP2 POP POP JUMP JUMPDEST PUSH0 PUSH1 0xFF DUP3 AND SWAP1 POP SWAP2 SWAP1 POP JUMP JUMPDEST PUSH2 0x4C5 DUP2 PUSH2 0x4B0 JUMP JUMPDEST DUP3 MSTORE POP POP JUMP JUMPDEST PUSH0 PUSH1 0x40 DUP3 ADD SWAP1 POP DUP2 DUP2 SUB PUSH0 DUP4 ADD MSTORE PUSH2 0x4E3 DUP2 DUP6 PUSH2 0x478 JUMP JUMPDEST SWAP1 POP PUSH2 0x4F2 PUSH1 0x20 DUP4 ADD DUP5 PUSH2 0x4BC JUMP JUMPDEST SWAP4 SWAP3 POP POP POP JUMP JUMPDEST PUSH0 PUSH1 0x40 MLOAD SWAP1 POP SWAP1 JUMP JUMPDEST PUSH0 PUSH0 REVERT JUMPDEST PUSH0 PUSH0 REVERT JUMPDEST PUSH0 DUP2 SWAP1 POP SWAP2 SWAP1 POP JUMP JUMPDEST PUSH2 0x51C DUP2 PUSH2 0x50A JUMP JUMPDEST DUP2 EQ PUSH2 0x526 JUMPI PUSH0 PUSH0 REVERT JUMPDEST POP JUMP JUMPDEST PUSH0 DUP2 CALLDATALOAD SWAP1 POP PUSH2 0x537 DUP2 PUSH2 0x513 JUMP JUMPDEST SWAP3 SWAP2 POP POP JUMP JUMPDEST PUSH0 PUSH1 0x20 DUP3 DUP5 SUB SLT ISZERO PUSH2 0x552 JUMPI PUSH2 0x551 PUSH2 0x502 JUMP JUMPDEST JUMPDEST PUSH0 PUSH2 0x55F DUP5 DUP3 DUP6 ADD PUSH2 0x529 JUMP JUMPDEST SWAP2 POP POP SWAP3 SWAP2 POP POP JUMP JUMPDEST PUSH2 0x571 DUP2 PUSH2 0x50A JUMP JUMPDEST DUP3 MSTORE POP POP JUMP JUMPDEST PUSH0 PUSH1 0x20 DUP3 ADD SWAP1 POP PUSH2 0x58A PUSH0 DUP4 ADD DUP5 PUSH2 0x568 JUMP JUMPDEST SWAP3 SWAP2 POP POP JUMP JUMPDEST PUSH0 PUSH20 0xFFFFFFFFFFFFFFFFFFFFFFFFFFFFFFFFFFFFFFFF DUP3 AND SWAP1 POP SWAP2 SWAP1 POP JUMP JUMPDEST PUSH0 PUSH2 0x5B9 DUP3 PUSH2 0x590 JUMP JUMPDEST SWAP1 POP SWAP2 SWAP1 POP JUMP JUMPDEST PUSH2 0x5C9 DUP2 PUSH2 0x5AF JUMP JUMPDEST DUP3 MSTORE POP POP JUMP JUMPDEST PUSH0 DUP2 ISZERO ISZERO SWAP1 POP SWAP2 SWAP1 POP JUMP JUMPDEST PUSH2 0x5E3 DUP2 PUSH2 0x5CF JUMP JUMPDEST DUP3 MSTORE POP POP JUMP JUMPDEST PUSH0 PUSH1 0x80 DUP3 ADD SWAP1 POP DUP2 DUP2 SUB PUSH0 DUP4 ADD MSTORE PUSH2 0x601 DUP2 DUP8 PUSH2 0x478 JUMP JUMPDEST SWAP1 POP PUSH2 0x610 PUSH1 0x20 DUP4 ADD DUP7 PUSH2 0x4BC JUMP JUMPDEST PUSH2 0x61D PUSH1 0x40 DUP4 ADD DUP6 PUSH2 0x5C0 JUMP JUMPDEST PUSH2 0x62A PUSH1 0x60 DUP4 ADD DUP5 PUSH2 0x5DA JUMP JUMPDEST SWAP6 SWAP5 POP POP POP POP POP JUMP JUMPDEST PUSH0 PUSH0 REVERT JUMPDEST PUSH0 PUSH0 REVERT JUMPDEST PUSH32 0x4E487B7100000000000000000000000000000000000000000000000000000000 PUSH0 MSTORE PUSH1 0x41 PUSH1 0x4 MSTORE PUSH1 0x24 PUSH0 REVERT JUMPDEST PUSH2 0x671 DUP3 PUSH2 0x468 JUMP JUMPDEST DUP2 ADD DUP2 DUP2 LT PUSH8 0xFFFFFFFFFFFFFFFF DUP3 GT OR ISZERO PUSH2 0x690 JUMPI PUSH2 0x68F PUSH2 0x63B JUMP JUMPDEST JUMPDEST DUP1 PUSH1 0x40 MSTORE POP POP POP JUMP JUMPDEST PUSH0 PUSH2 0x6A2 PUSH2 0x4F9 JUMP JUMPDEST SWAP1 POP PUSH2 0x6AE DUP3 DUP3 PUSH2 0x668 JUMP JUMPDEST SWAP2 SWAP1 POP JUMP JUMPDEST PUSH0 PUSH8 0xFFFFFFFFFFFFFFFF DUP3 GT ISZERO PUSH2 0x6CD JUMPI PUSH2 0x6CC PUSH2 0x63B JUMP JUMPDEST JUMPDEST PUSH2 0x6D6 DUP3 PUSH2 0x468 JUMP JUMPDEST SWAP1 POP PUSH1 0x20 DUP2 ADD SWAP1 POP SWAP2 SWAP1 POP JUMP JUMPDEST DUP3 DUP2 DUP4 CALLDATACOPY PUSH0 DUP4 DUP4 ADD MSTORE POP POP POP JUMP JUMPDEST PUSH0 PUSH2 0x703 PUSH2 0x6FE DUP5 PUSH2 0x6B3 JUMP JUMPDEST PUSH2 0x699 JUMP JUMPDEST SWAP1 POP DUP3 DUP2 MSTORE PUSH1 0x20 DUP2 ADD DUP5 DUP5 DUP5 ADD GT ISZERO PUSH2 0x71F JUMPI PUSH2 0x71E PUSH2 0x637 JUMP JUMPDEST JUMPDEST PUSH2 0x72A DUP5 DUP3 DUP6 PUSH2 0x6E3 JUMP JUMPDEST POP SWAP4 SWAP3 POP POP POP JUMP JUMPDEST PUSH0 DUP3 PUSH1 0x1F DUP4 ADD SLT PUSH2 0x746 JUMPI PUSH2 0x745 PUSH2 0x633 JUMP JUMPDEST JUMPDEST DUP2 CALLDATALOAD PUSH2 0x756 DUP5 DUP3 PUSH1 0x20 DUP7 ADD PUSH2 0x6F1 JUMP JUMPDEST SWAP2 POP POP SWAP3 SWAP2 POP POP JUMP JUMPDEST PUSH2 0x768 DUP2 PUSH2 0x4B0 JUMP JUMPDEST DUP2 EQ PUSH2 0x772 JUMPI PUSH0 PUSH0 REVERT JUMPDEST POP JUMP JUMPDEST PUSH0 DUP2 CALLDATALOAD SWAP1 POP PUSH2 0x783 DUP2 PUSH2 0x75F JUMP JUMPDEST SWAP3 SWAP2 POP POP JUMP JUMPDEST PUSH0 PUSH0 PUSH1 0x40 DUP4 DUP6 SUB SLT ISZERO PUSH2 0x79F JUMPI PUSH2 0x79E PUSH2 0x502 JUMP JUMPDEST JUMPDEST PUSH0 DUP4 ADD CALLDATALOAD PUSH8 0xFFFFFFFFFFFFFFFF DUP2 GT ISZERO PUSH2 0x7BC JUMPI PUSH2 0x7BB PUSH2 0x506 JUMP JUMPDEST JUMPDEST PUSH2 0x7C8 DUP6 DUP3 DUP7 ADD PUSH2 0x732 JUMP JUMPDEST SWAP3 POP POP PUSH1 0x20 PUSH2 0x7D9 DUP6 DUP3 DUP7 ADD PUSH2 0x775 JUMP JUMPDEST SWAP2 POP POP SWAP3 POP SWAP3 SWAP1 POP JUMP JUMPDEST PUSH32 0x4E487B7100000000000000000000000000000000000000000000000000000000 PUSH0 MSTORE PUSH1 0x11 PUSH1 0x4 MSTORE PUSH1 0x24 PUSH0 REVERT JUMPDEST PUSH0 PUSH2 0x81A DUP3 PUSH2 0x50A JUMP JUMPDEST SWAP2 POP PUSH2 0x825 DUP4 PUSH2 0x50A JUMP JUMPDEST SWAP3 POP DUP3 DUP3 SUB SWAP1 POP DUP2 DUP2 GT ISZERO PUSH2 0x83D JUMPI PUSH2 0x83C PUSH2 0x7E3 JUMP JUMPDEST JUMPDEST SWAP3 SWAP2 POP POP JUMP JUMPDEST PUSH32 0x4E487B7100000000000000000000000000000000000000000000000000000000 PUSH0 MSTORE PUSH1 0x22 PUSH1 0x4 MSTORE PUSH1 0x24 PUSH0 REVERT JUMPDEST PUSH0 PUSH1 0x2 DUP3 DIV SWAP1 POP PUSH1 0x1 DUP3 AND DUP1 PUSH2 0x887 JUMPI PUSH1 0x7F DUP3 AND SWAP2 POP JUMPDEST PUSH1 0x20 DUP3 LT DUP2 SUB PUSH2 0x89A JUMPI PUSH2 0x899 PUSH2 0x843 JUMP JUMPDEST JUMPDEST POP SWAP2 SWAP1 POP JUMP JUMPDEST PUSH0 PUSH2 0x8AA DUP3 PUSH2 0x50A JUMP JUMPDEST SWAP2 POP PUSH2 0x8B5 DUP4 PUSH2 0x50A JUMP JUMPDEST SWAP3 POP DUP3 DUP3 MUL PUSH2 0x8C3 DUP2 PUSH2 0x50A JUMP JUMPDEST SWAP2 POP DUP3 DUP3 DIV DUP5 EQ DUP4 ISZERO OR PUSH2 0x8DA JUMPI PUSH2 0x8D9 PUSH2 0x7E3 JUMP JUMPDEST JUMPDEST POP SWAP3 SWAP2 POP POP JUMP JUMPDEST PUSH0 DUP2 SWAP1 POP DUP2 PUSH0 MSTORE PUSH1 0x20 PUSH0 KECCAK256 SWAP1 POP SWAP2 SWAP1 POP JUMP JUMPDEST PUSH0 PUSH1 0x20 PUSH1 0x1F DUP4 ADD DIV SWAP1 POP SWAP2 SWAP1 POP JUMP JUMPDEST PUSH0 DUP3 DUP3 SHL SWAP1 POP SWAP3 SWAP2 POP POP JUMP JUMPDEST PUSH0 PUSH1 0x8 DUP4 MUL PUSH2 0x93D PUSH32 0xFFFFFFFFFFFFFFFFFFFFFFFFFFFFFFFFFFFFFFFFFFFFFFFFFFFFFFFFFFFFFFFF DUP3 PUSH2 0x902 JUMP JUMPDEST PUSH2 0x947 DUP7 DUP4 PUSH2 0x902 JUMP JUMPDEST SWAP6 POP DUP1 NOT DUP5 AND SWAP4 POP DUP1 DUP7 AND DUP5 OR SWAP3 POP POP POP SWAP4 SWAP3 POP POP POP JUMP JUMPDEST PUSH0 DUP2 SWAP1 POP SWAP2 SWAP1 POP JUMP JUMPDEST PUSH0 PUSH2 0x982 PUSH2 0x97D PUSH2 0x978 DUP5 PUSH2 0x50A JUMP JUMPDEST PUSH2 0x95F JUMP JUMPDEST PUSH2 0x50A JUMP JUMPDEST SWAP1 POP SWAP2 SWAP1 POP JUMP JUMPDEST PUSH0 DUP2 SWAP1 POP SWAP2 SWAP1 POP JUMP JUMPDEST PUSH2 0x99B DUP4 PUSH2 0x968 JUMP JUMPDEST PUSH2 0x9AF PUSH2 0x9A7 DUP3 PUSH2 0x989 JUMP JUMPDEST DUP5 DUP5 SLOAD PUSH2 0x90E JUMP JUMPDEST DUP3 SSTORE POP POP POP POP JUMP JUMPDEST PUSH0 PUSH0 SWAP1 POP SWAP1 JUMP JUMPDEST PUSH2 0x9C6 PUSH2 0x9B7 JUMP JUMPDEST PUSH2 0x9D1 DUP2 DUP5 DUP5 PUSH2 0x992 JUMP JUMPDEST POP POP POP JUMP JUMPDEST JUMPDEST DUP2 DUP2 LT ISZERO PUSH2 0x9F4 JUMPI PUSH2 0x9E9 PUSH0 DUP3 PUSH2 0x9BE JUMP JUMPDEST PUSH1 0x1 DUP2 ADD SWAP1 POP PUSH2 0x9D7 JUMP JUMPDEST POP POP JUMP JUMPDEST PUSH1 0x1F DUP3 GT ISZERO PUSH2 0xA39 JUMPI PUSH2 0xA0A DUP2 PUSH2 0x8E1 JUMP JUMPDEST PUSH2 0xA13 DUP5 PUSH2 0x8F3 JUMP JUMPDEST DUP2 ADD PUSH1 0x20 DUP6 LT ISZERO PUSH2 0xA22 JUMPI DUP2 SWAP1 POP JUMPDEST PUSH2 0xA36 PUSH2 0xA2E DUP6 PUSH2 0x8F3 JUMP JUMPDEST DUP4 ADD DUP3 PUSH2 0x9D6 JUMP JUMPDEST POP POP JUMPDEST POP POP POP JUMP JUMPDEST PUSH0 DUP3 DUP3 SHR SWAP1 POP SWAP3 SWAP2 POP POP JUMP JUMPDEST PUSH0 PUSH2 0xA59 PUSH0 NOT DUP5 PUSH1 0x8 MUL PUSH2 0xA3E JUMP JUMPDEST NOT DUP1 DUP4 AND SWAP2 POP POP SWAP3 SWAP2 POP POP JUMP JUMPDEST PUSH0 PUSH2 0xA71 DUP4 DUP4 PUSH2 0xA4A JUMP JUMPDEST SWAP2 POP DUP3 PUSH1 0x2 MUL DUP3 OR SWAP1 POP SWAP3 SWAP2 POP POP JUMP JUMPDEST PUSH2 0xA8A DUP3 PUSH2 0x440 JUMP JUMPDEST PUSH8 0xFFFFFFFFFFFFFFFF DUP2 GT ISZERO PUSH2 0xAA3 JUMPI PUSH2 0xAA2 PUSH2 0x63B JUMP JUMPDEST JUMPDEST PUSH2 0xAAD DUP3 SLOAD PUSH2 0x870 JUMP JUMPDEST PUSH2 0xAB8 DUP3 DUP3 DUP6 PUSH2 0x9F8 JUMP JUMPDEST PUSH0 PUSH1 0x20 SWAP1 POP PUSH1 0x1F DUP4 GT PUSH1 0x1 DUP2 EQ PUSH2 0xAE9 JUMPI PUSH0 DUP5 ISZERO PUSH2 0xAD7 JUMPI DUP3 DUP8 ADD MLOAD SWAP1 POP JUMPDEST PUSH2 0xAE1 DUP6 DUP3 PUSH2 0xA66 JUMP JUMPDEST DUP7 SSTORE POP PUSH2 0xB48 JUMP JUMPDEST PUSH1 0x1F NOT DUP5 AND PUSH2 0xAF7 DUP7 PUSH2 0x8E1 JUMP JUMPDEST PUSH0 JUMPDEST DUP3 DUP2 LT ISZERO PUSH2 0xB1E JUMPI DUP5 DUP10 ADD MLOAD DUP3 SSTORE PUSH1 0x1 DUP3 ADD SWAP2 POP PUSH1 0x20 DUP6 ADD SWAP5 POP PUSH1 0x20 DUP2 ADD SWAP1 POP PUSH2 0xAF9 JUMP JUMPDEST DUP7 DUP4 LT ISZERO PUSH2 0xB3B JUMPI DUP5 DUP10 ADD MLOAD PUSH2 0xB37 PUSH1 0x1F DUP10 AND DUP3 PUSH2 0xA4A JUMP JUMPDEST DUP4 SSTORE POP JUMPDEST PUSH1 0x1 PUSH1 0x2 DUP9 MUL ADD DUP9 SSTORE POP POP POP JUMPDEST POP POP POP POP POP POP JUMP INVALID LOG2 PUSH5 0x6970667358 0x22 SLT KECCAK256 ADDMOD 0xB8 0xE5 ADDMOD 0xC5 BLOCKHASH SWAP10 0xDC 0xE2 0xD0 0xCF GASLIMIT 0x25 0xBA PUSH11 0xF35C828F93F7519E8EF919 DUP14 JUMP INVALID CODECOPY 0xC4 PUSH6 0x64736F6C6343 STOP ADDMOD SHR STOP CALLER "
		},
		"gasEstimates": {
			"creation": {
				"codeDepositCost": "590000",
				"executionCost": "623",
				"totalCost": "590623"
			},
			"external": {
				"buyBook()": "infinite",
				"ethToWei(uint256)": "infinite",
				"getBookTitle()": "infinite",
				"myBook()": "infinite",
				"setBookTitle(string,uint8)": "infinite"
			}
		},
		"methodIdentifiers": {
			"buyBook()": "189a55e7",
			"ethToWei(uint256)": "88439bbc",
			"getBookTitle()": "72e46388",
			"myBook()": "aab27ef7",
			"setBookTitle(string,uint8)": "c5eebe4c"
		}
	},
	"abi": [
		{
			"inputs": [],
			"name": "buyBook",
			"outputs": [],
			"stateMutability": "payable",
			"type": "function"
		},
		{
			"inputs": [
				{
					"internalType": "uint256",
					"name": "eval",
					"type": "uint256"
				}
			],
			"name": "ethToWei",
			"outputs": [
				{
					"internalType": "uint256",
					"name": "",
					"type": "uint256"
				}
			],
			"stateMutability": "pure",
			"type": "function"
		},
		{
			"inputs": [],
			"name": "getBookTitle",
			"outputs": [
				{
					"internalType": "string",
					"name": "",
					"type": "string"
				},
				{
					"internalType": "uint8",
					"name": "",
					"type": "uint8"
				}
			],
			"stateMutability": "view",
			"type": "function"
		},
		{
			"inputs": [],
			"name": "myBook",
			"outputs": [
				{
					"internalType": "string",
					"name": "title",
					"type": "string"
				},
				{
					"internalType": "uint8",
					"name": "price",
					"type": "uint8"
				},
				{
					"internalType": "address",
					"name": "owner",
					"type": "address"
				},
				{
					"internalType": "bool",
					"name": "sold",
					"type": "bool"
				}
			],
			"stateMutability": "view",
			"type": "function"
		},
		{
			"inputs": [
				{
					"internalType": "string",
					"name": "_title",
					"type": "string"
				},
				{
					"internalType": "uint8",
					"name": "_price",
					"type": "uint8"
				}
			],
			"name": "setBookTitle",
			"outputs": [],
			"stateMutability": "nonpayable",
			"type": "function"
		}
	]
}